{
  "contractName": "Store",
  "abi": [
    {
      "constant": false,
      "inputs": [],
      "name": "lockOwnership",
      "outputs": [],
      "payable": false,
      "stateMutability": "nonpayable",
      "type": "function"
    },
    {
      "constant": false,
      "inputs": [
        {
          "name": "_key",
          "type": "bytes32"
        }
      ],
      "name": "deleteAddress",
      "outputs": [],
      "payable": false,
      "stateMutability": "nonpayable",
      "type": "function"
    },
    {
      "constant": false,
      "inputs": [
        {
          "name": "_key",
          "type": "bytes32"
        }
      ],
      "name": "deleteUint16",
      "outputs": [],
      "payable": false,
      "stateMutability": "nonpayable",
      "type": "function"
    },
    {
      "constant": true,
      "inputs": [
        {
          "name": "_key",
          "type": "bytes32"
        }
      ],
      "name": "getAddress",
      "outputs": [
        {
          "name": "",
          "type": "address"
        }
      ],
      "payable": false,
      "stateMutability": "view",
      "type": "function"
    },
    {
      "constant": false,
      "inputs": [
        {
          "name": "_key",
          "type": "bytes32"
        },
        {
          "name": "_value",
          "type": "uint256"
        }
      ],
      "name": "setUint8",
      "outputs": [],
      "payable": false,
      "stateMutability": "nonpayable",
      "type": "function"
    },
    {
      "constant": false,
      "inputs": [
        {
          "name": "_key",
          "type": "bytes32"
        }
      ],
      "name": "deleteBool",
      "outputs": [],
      "payable": false,
      "stateMutability": "nonpayable",
      "type": "function"
    },
    {
      "constant": false,
      "inputs": [
        {
          "name": "_key",
          "type": "bytes32"
        },
        {
          "name": "_value",
          "type": "bytes"
        }
      ],
      "name": "setBytes",
      "outputs": [],
      "payable": false,
      "stateMutability": "nonpayable",
      "type": "function"
    },
    {
      "constant": false,
      "inputs": [
        {
          "name": "_key",
          "type": "bytes32"
        },
        {
          "name": "_value",
          "type": "int256"
        }
      ],
      "name": "setInt",
      "outputs": [],
      "payable": false,
      "stateMutability": "nonpayable",
      "type": "function"
    },
    {
      "constant": false,
      "inputs": [
        {
          "name": "_key",
          "type": "bytes32"
        }
      ],
      "name": "deleteUint8",
      "outputs": [],
      "payable": false,
      "stateMutability": "nonpayable",
      "type": "function"
    },
    {
      "constant": false,
      "inputs": [
        {
          "name": "_key",
          "type": "bytes32"
        }
      ],
      "name": "deleteBytes",
      "outputs": [],
      "payable": false,
      "stateMutability": "nonpayable",
      "type": "function"
    },
    {
      "constant": true,
      "inputs": [
        {
          "name": "_key",
          "type": "bytes32"
        }
      ],
      "name": "getUint16",
      "outputs": [
        {
          "name": "",
          "type": "uint16"
        }
      ],
      "payable": false,
      "stateMutability": "view",
      "type": "function"
    },
    {
      "constant": false,
      "inputs": [
        {
          "name": "_key",
          "type": "bytes32"
        },
        {
          "name": "_value",
          "type": "string"
        }
      ],
      "name": "setString",
      "outputs": [],
      "payable": false,
      "stateMutability": "nonpayable",
      "type": "function"
    },
    {
      "constant": false,
      "inputs": [
        {
          "name": "_key",
          "type": "bytes32"
        },
        {
          "name": "_value",
          "type": "uint256"
        }
      ],
      "name": "setUint16",
      "outputs": [],
      "payable": false,
      "stateMutability": "nonpayable",
      "type": "function"
    },
    {
      "constant": true,
      "inputs": [
        {
          "name": "_key",
          "type": "bytes32"
        }
      ],
      "name": "getBool",
      "outputs": [
        {
          "name": "",
          "type": "bool"
        }
      ],
      "payable": false,
      "stateMutability": "view",
      "type": "function"
    },
    {
      "constant": true,
      "inputs": [
        {
          "name": "_key",
          "type": "bytes32"
        }
      ],
      "name": "getUint8",
      "outputs": [
        {
          "name": "",
          "type": "uint8"
        }
      ],
      "payable": false,
      "stateMutability": "view",
      "type": "function"
    },
    {
      "constant": false,
      "inputs": [
        {
          "name": "_key",
          "type": "bytes32"
        }
      ],
      "name": "deleteInt",
      "outputs": [],
      "payable": false,
      "stateMutability": "nonpayable",
      "type": "function"
    },
    {
      "constant": true,
      "inputs": [],
      "name": "owner",
      "outputs": [
        {
          "name": "",
          "type": "address"
        }
      ],
      "payable": false,
      "stateMutability": "view",
      "type": "function"
    },
    {
      "constant": true,
      "inputs": [
        {
          "name": "_key",
          "type": "bytes32"
        }
      ],
      "name": "getString",
      "outputs": [
        {
          "name": "",
          "type": "string"
        }
      ],
      "payable": false,
      "stateMutability": "view",
      "type": "function"
    },
    {
      "constant": false,
      "inputs": [
        {
          "name": "_key",
          "type": "bytes32"
        },
        {
          "name": "_value",
          "type": "bool"
        }
      ],
      "name": "setBool",
      "outputs": [],
      "payable": false,
      "stateMutability": "nonpayable",
      "type": "function"
    },
    {
      "constant": true,
      "inputs": [
        {
          "name": "_key",
          "type": "bytes32"
        }
      ],
      "name": "getUint",
      "outputs": [
        {
          "name": "",
          "type": "uint256"
        }
      ],
      "payable": false,
      "stateMutability": "view",
      "type": "function"
    },
    {
      "constant": true,
      "inputs": [
        {
          "name": "_key",
          "type": "bytes32"
        }
      ],
      "name": "getBytes",
      "outputs": [
        {
          "name": "",
          "type": "bytes"
        }
      ],
      "payable": false,
      "stateMutability": "view",
      "type": "function"
    },
    {
      "constant": false,
      "inputs": [
        {
          "name": "_key",
          "type": "bytes32"
        },
        {
          "name": "_value",
          "type": "address"
        }
      ],
      "name": "setAddress",
      "outputs": [],
      "payable": false,
      "stateMutability": "nonpayable",
      "type": "function"
    },
    {
      "constant": true,
      "inputs": [],
      "name": "locked",
      "outputs": [
        {
          "name": "",
          "type": "bool"
        }
      ],
      "payable": false,
      "stateMutability": "view",
      "type": "function"
    },
    {
      "constant": true,
      "inputs": [
        {
          "name": "_key",
          "type": "bytes32"
        }
      ],
      "name": "getInt",
      "outputs": [
        {
          "name": "",
          "type": "int256"
        }
      ],
      "payable": false,
      "stateMutability": "view",
      "type": "function"
    },
    {
      "constant": false,
      "inputs": [
        {
          "name": "_key",
          "type": "bytes32"
        },
        {
          "name": "_value",
          "type": "uint256"
        }
      ],
      "name": "setUint",
      "outputs": [],
      "payable": false,
      "stateMutability": "nonpayable",
      "type": "function"
    },
    {
      "constant": false,
      "inputs": [
        {
          "name": "_key",
          "type": "bytes32"
        }
      ],
      "name": "deleteUint",
      "outputs": [],
      "payable": false,
      "stateMutability": "nonpayable",
      "type": "function"
    },
    {
      "constant": false,
      "inputs": [
        {
          "name": "newOwner",
          "type": "address"
        }
      ],
      "name": "transferOwnership",
      "outputs": [],
      "payable": false,
      "stateMutability": "nonpayable",
      "type": "function"
    },
    {
      "constant": false,
      "inputs": [
        {
          "name": "_key",
          "type": "bytes32"
        }
      ],
      "name": "deleteString",
      "outputs": [],
      "payable": false,
      "stateMutability": "nonpayable",
      "type": "function"
    }
  ],
  "bytecode": "0x6060604052336000806101000a81548173ffffffffffffffffffffffffffffffffffffffff021916908373ffffffffffffffffffffffffffffffffffffffff1602179055506116de806100536000396000f30060606040526004361061016a576000357c0100000000000000000000000000000000000000000000000000000000900463ffffffff1680630577c02b1461016f5780630e14a3761461018457806316816ded146101ab57806321f8a721146101d25780632767afde146102395780632c62ff2d146102695780632e28d084146102905780633e49bed0146102cb5780635701a2bd146102fb578063616b59f61461032257806365f4f498146103495780636e8995501461038c578063752573f4146103c75780637ae1cfca146103f75780638b23b40b146104365780638c160095146104775780638da5cb5b1461049e578063986e791a146104f3578063abfdcced14610593578063bd02d0f5146105c5578063c031a18014610600578063ca446dd9146106a0578063cf309012146106e6578063dc97d96214610713578063e2a4853a1461074e578063e2b202bf1461077e578063f2fde38b146107a5578063f6bb3cc4146107de575b600080fd5b341561017a57600080fd5b610182610805565b005b341561018f57600080fd5b6101a960048080356000191690602001909190505061087d565b005b34156101b657600080fd5b6101d0600480803560001916906020019091905050610919565b005b34156101dd57600080fd5b6101f7600480803560001916906020019091905050610996565b604051808273ffffffffffffffffffffffffffffffffffffffff1673ffffffffffffffffffffffffffffffffffffffff16815260200191505060405180910390f35b341561024457600080fd5b6102676004808035600019169060200190919080359060200190919050506109db565b005b341561027457600080fd5b61028e600480803560001916906020019091905050610a5a565b005b341561029b57600080fd5b6102c96004808035600019169060200190919080359060200190820180359060200191909192905050610ae3565b005b34156102d657600080fd5b6102f9600480803560001916906020019091908035906020019091905050610b6e565b005b341561030657600080fd5b610320600480803560001916906020019091905050610bed565b005b341561032d57600080fd5b610347600480803560001916906020019091905050610c6a565b005b341561035457600080fd5b61036e600480803560001916906020019091905050610cef565b604051808261ffff1661ffff16815260200191505060405180910390f35b341561039757600080fd5b6103c56004808035600019169060200190919080359060200190820180359060200191909192905050610d22565b005b34156103d257600080fd5b6103f5600480803560001916906020019091908035906020019091905050610dad565b005b341561040257600080fd5b61041c600480803560001916906020019091905050610e2c565b604051808215151515815260200191505060405180910390f35b341561044157600080fd5b61045b600480803560001916906020019091905050610e5e565b604051808260ff1660ff16815260200191505060405180910390f35b341561048257600080fd5b61049c600480803560001916906020019091905050610e90565b005b34156104a957600080fd5b6104b1610f0d565b604051808273ffffffffffffffffffffffffffffffffffffffff1673ffffffffffffffffffffffffffffffffffffffff16815260200191505060405180910390f35b34156104fe57600080fd5b610518600480803560001916906020019091905050610f32565b6040518080602001828103825283818151815260200191508051906020019080838360005b8381101561055857808201518184015260208101905061053d565b50505050905090810190601f1680156105855780820380516001836020036101000a031916815260200191505b509250505060405180910390f35b341561059e57600080fd5b6105c36004808035600019169060200190919080351515906020019091905050610ff5565b005b34156105d057600080fd5b6105ea600480803560001916906020019091905050611087565b6040518082815260200191505060405180910390f35b341561060b57600080fd5b6106256004808035600019169060200190919050506110ac565b6040518080602001828103825283818151815260200191508051906020019080838360005b8381101561066557808201518184015260208101905061064a565b50505050905090810190601f1680156106925780820380516001836020036101000a031916815260200191505b509250505060405180910390f35b34156106ab57600080fd5b6106e460048080356000191690602001909190803573ffffffffffffffffffffffffffffffffffffffff1690602001909190505061116f565b005b34156106f157600080fd5b6106f9611228565b604051808215151515815260200191505060405180910390f35b341561071e57600080fd5b61073860048080356000191690602001909190505061123b565b6040518082815260200191505060405180910390f35b341561075957600080fd5b61077c600480803560001916906020019091908035906020019091905050611260565b005b341561078957600080fd5b6107a36004808035600019169060200190919050506112df565b005b34156107b057600080fd5b6107dc600480803573ffffffffffffffffffffffffffffffffffffffff1690602001909190505061135c565b005b34156107e957600080fd5b610803600480803560001916906020019091905050611450565b005b6000809054906101000a900473ffffffffffffffffffffffffffffffffffffffff1673ffffffffffffffffffffffffffffffffffffffff163373ffffffffffffffffffffffffffffffffffffffff1614151561086057600080fd5b6001600060146101000a81548160ff021916908315150217905550565b6000809054906101000a900473ffffffffffffffffffffffffffffffffffffffff1673ffffffffffffffffffffffffffffffffffffffff163373ffffffffffffffffffffffffffffffffffffffff161415156108d857600080fd5b60056000826000191660001916815260200190815260200160002060006101000a81549073ffffffffffffffffffffffffffffffffffffffff021916905550565b6000809054906101000a900473ffffffffffffffffffffffffffffffffffffffff1673ffffffffffffffffffffffffffffffffffffffff163373ffffffffffffffffffffffffffffffffffffffff1614151561097457600080fd5b6003600082600019166000191681526020019081526020016000206000905550565b600060056000836000191660001916815260200190815260200160002060009054906101000a900473ffffffffffffffffffffffffffffffffffffffff169050919050565b6000809054906101000a900473ffffffffffffffffffffffffffffffffffffffff1673ffffffffffffffffffffffffffffffffffffffff163373ffffffffffffffffffffffffffffffffffffffff16141515610a3657600080fd5b80600360008460001916600019168152602001908152602001600020819055505050565b6000809054906101000a900473ffffffffffffffffffffffffffffffffffffffff1673ffffffffffffffffffffffffffffffffffffffff163373ffffffffffffffffffffffffffffffffffffffff16141515610ab557600080fd5b60076000826000191660001916815260200190815260200160002060006101000a81549060ff021916905550565b6000809054906101000a900473ffffffffffffffffffffffffffffffffffffffff1673ffffffffffffffffffffffffffffffffffffffff163373ffffffffffffffffffffffffffffffffffffffff16141515610b3e57600080fd5b81816006600086600019166000191681526020019081526020016000209190610b689291906114d5565b50505050565b6000809054906101000a900473ffffffffffffffffffffffffffffffffffffffff1673ffffffffffffffffffffffffffffffffffffffff163373ffffffffffffffffffffffffffffffffffffffff16141515610bc957600080fd5b80600860008460001916600019168152602001908152602001600020819055505050565b6000809054906101000a900473ffffffffffffffffffffffffffffffffffffffff1673ffffffffffffffffffffffffffffffffffffffff163373ffffffffffffffffffffffffffffffffffffffff16141515610c4857600080fd5b6003600082600019166000191681526020019081526020016000206000905550565b6000809054906101000a900473ffffffffffffffffffffffffffffffffffffffff1673ffffffffffffffffffffffffffffffffffffffff163373ffffffffffffffffffffffffffffffffffffffff16141515610cc557600080fd5b6006600082600019166000191681526020019081526020016000206000610cec9190611555565b50565b600060026000836000191660001916815260200190815260200160002060009054906101000a900461ffff169050919050565b6000809054906101000a900473ffffffffffffffffffffffffffffffffffffffff1673ffffffffffffffffffffffffffffffffffffffff163373ffffffffffffffffffffffffffffffffffffffff16141515610d7d57600080fd5b81816004600086600019166000191681526020019081526020016000209190610da792919061159d565b50505050565b6000809054906101000a900473ffffffffffffffffffffffffffffffffffffffff1673ffffffffffffffffffffffffffffffffffffffff163373ffffffffffffffffffffffffffffffffffffffff16141515610e0857600080fd5b80600360008460001916600019168152602001908152602001600020819055505050565b600060076000836000191660001916815260200190815260200160002060009054906101000a900460ff169050919050565b600060016000836000191660001916815260200190815260200160002060009054906101000a900460ff169050919050565b6000809054906101000a900473ffffffffffffffffffffffffffffffffffffffff1673ffffffffffffffffffffffffffffffffffffffff163373ffffffffffffffffffffffffffffffffffffffff16141515610eeb57600080fd5b6008600082600019166000191681526020019081526020016000206000905550565b6000809054906101000a900473ffffffffffffffffffffffffffffffffffffffff1681565b610f3a61161d565b6004600083600019166000191681526020019081526020016000208054600181600116156101000203166002900480601f016020809104026020016040519081016040528092919081815260200182805460018160011615610100020316600290048015610fe95780601f10610fbe57610100808354040283529160200191610fe9565b820191906000526020600020905b815481529060010190602001808311610fcc57829003601f168201915b50505050509050919050565b6000809054906101000a900473ffffffffffffffffffffffffffffffffffffffff1673ffffffffffffffffffffffffffffffffffffffff163373ffffffffffffffffffffffffffffffffffffffff1614151561105057600080fd5b8060076000846000191660001916815260200190815260200160002060006101000a81548160ff0219169083151502179055505050565b6000600360008360001916600019168152602001908152602001600020549050919050565b6110b4611631565b6006600083600019166000191681526020019081526020016000208054600181600116156101000203166002900480601f0160208091040260200160405190810160405280929190818152602001828054600181600116156101000203166002900480156111635780601f1061113857610100808354040283529160200191611163565b820191906000526020600020905b81548152906001019060200180831161114657829003601f168201915b50505050509050919050565b6000809054906101000a900473ffffffffffffffffffffffffffffffffffffffff1673ffffffffffffffffffffffffffffffffffffffff163373ffffffffffffffffffffffffffffffffffffffff161415156111ca57600080fd5b8060056000846000191660001916815260200190815260200160002060006101000a81548173ffffffffffffffffffffffffffffffffffffffff021916908373ffffffffffffffffffffffffffffffffffffffff1602179055505050565b600060149054906101000a900460ff1681565b6000600860008360001916600019168152602001908152602001600020549050919050565b6000809054906101000a900473ffffffffffffffffffffffffffffffffffffffff1673ffffffffffffffffffffffffffffffffffffffff163373ffffffffffffffffffffffffffffffffffffffff161415156112bb57600080fd5b80600360008460001916600019168152602001908152602001600020819055505050565b6000809054906101000a900473ffffffffffffffffffffffffffffffffffffffff1673ffffffffffffffffffffffffffffffffffffffff163373ffffffffffffffffffffffffffffffffffffffff1614151561133a57600080fd5b6003600082600019166000191681526020019081526020016000206000905550565b6000809054906101000a900473ffffffffffffffffffffffffffffffffffffffff1673ffffffffffffffffffffffffffffffffffffffff163373ffffffffffffffffffffffffffffffffffffffff161415156113b757600080fd5b60001515600060149054906101000a900460ff1615151415156113d657fe5b600073ffffffffffffffffffffffffffffffffffffffff168173ffffffffffffffffffffffffffffffffffffffff1614151561144d57806000806101000a81548173ffffffffffffffffffffffffffffffffffffffff021916908373ffffffffffffffffffffffffffffffffffffffff1602179055505b50565b6000809054906101000a900473ffffffffffffffffffffffffffffffffffffffff1673ffffffffffffffffffffffffffffffffffffffff163373ffffffffffffffffffffffffffffffffffffffff161415156114ab57600080fd5b60046000826000191660001916815260200190815260200160002060006114d29190611645565b50565b828054600181600116156101000203166002900490600052602060002090601f016020900481019282601f1061151657803560ff1916838001178555611544565b82800160010185558215611544579182015b82811115611543578235825591602001919060010190611528565b5b509050611551919061168d565b5090565b50805460018160011615610100020316600290046000825580601f1061157b575061159a565b601f016020900490600052602060002090810190611599919061168d565b5b50565b828054600181600116156101000203166002900490600052602060002090601f016020900481019282601f106115de57803560ff191683800117855561160c565b8280016001018555821561160c579182015b8281111561160b5782358255916020019190600101906115f0565b5b509050611619919061168d565b5090565b602060405190810160405280600081525090565b602060405190810160405280600081525090565b50805460018160011615610100020316600290046000825580601f1061166b575061168a565b601f016020900490600052602060002090810190611689919061168d565b5b50565b6116af91905b808211156116ab576000816000905550600101611693565b5090565b905600a165627a7a723058201c0804d9eae7cd6246285ea688f65edb5fbe9a5909b2dd447aff8731601777220029",
  "source": "pragma solidity 0.4.18;\n\nimport \"./utils/Ownable.sol\";\n\n\ncontract Store is Ownable {\n\n\n    /**** Storage Types *******/\n\n    mapping(bytes32 => uint8)      private uInt8Storage;\n    mapping(bytes32 => uint16)     private uInt16Storage;\n    mapping(bytes32 => uint256)    private uIntStorage;\n    mapping(bytes32 => string)     private stringStorage;\n    mapping(bytes32 => address)    private addressStorage;\n    mapping(bytes32 => bytes)      private bytesStorage;\n    mapping(bytes32 => bool)       private boolStorage;\n    mapping(bytes32 => int256)     private intStorage;\n\n\n    /*** Modifiers ************/\n\n    /**\n    * Only allow access to libraries in the store interface network *\n    * Currently the contracts in the store interface network are:\n    * - DividendsLib\n    */\n\n    modifier onlyStoreInterface() {\n      require(msg.sender == owner);\n      _;\n    }\n\n    /**** Get Methods ***********/\n\n    /// @param _key The key for the record\n    function getAddress(bytes32 _key) external view returns (address) {\n        return addressStorage[_key];\n    }\n\n    /// @param _key The key for the record\n    function getUint(bytes32 _key) external view returns (uint) {\n        return uIntStorage[_key];\n    }\n\n    function getUint8(bytes32 _key) external view returns (uint8) {\n      return uInt8Storage[_key];\n    }\n\n    function getUint16(bytes32 _key) external view returns (uint16) {\n        return uInt16Storage[_key];\n    }\n\n    /// @param _key The key for the record\n    function getString(bytes32 _key) external view returns (string) {\n        return stringStorage[_key];\n    }\n\n    /// @param _key The key for the record\n    function getBytes(bytes32 _key) external view returns (bytes) {\n        return bytesStorage[_key];\n    }\n\n    /// @param _key The key for the record\n    function getBool(bytes32 _key) external view returns (bool) {\n        return boolStorage[_key];\n    }\n\n    /// @param _key The key for the record\n    function getInt(bytes32 _key) external view returns (int) {\n        return intStorage[_key];\n    }\n\n\n    /**** Set Methods ***********/\n\n\n    /// @param _key The key for the record\n    function setAddress(bytes32 _key, address _value) onlyStoreInterface external {\n        addressStorage[_key] = _value;\n    }\n\n    /// @param _key The key for the record\n    function setUint(bytes32 _key, uint _value) onlyStoreInterface external {\n        uIntStorage[_key] = _value;\n    }\n\n    function setUint8(bytes32 _key, uint _value) onlyStoreInterface external {\n        uIntStorage[_key] = _value;\n    }\n\n    function setUint16(bytes32 _key, uint _value) onlyStoreInterface external {\n        uIntStorage[_key] = _value;\n    }\n\n    /// @param _key The key for the record\n    function setString(bytes32 _key, string _value) onlyStoreInterface external {\n        stringStorage[_key] = _value;\n    }\n\n    /// @param _key The key for the record\n    function setBytes(bytes32 _key, bytes _value) onlyStoreInterface external {\n        bytesStorage[_key] = _value;\n    }\n\n    /// @param _key The key for the record\n    function setBool(bytes32 _key, bool _value) onlyStoreInterface external {\n        boolStorage[_key] = _value;\n    }\n\n    /// @param _key The key for the record\n    function setInt(bytes32 _key, int _value) onlyStoreInterface external {\n        intStorage[_key] = _value;\n    }\n\n\n    /**** Delete Methods ***********/\n\n    /// @param _key The key for the record\n    function deleteAddress(bytes32 _key) onlyStoreInterface external {\n        delete addressStorage[_key];\n    }\n\n    /// @param _key The key for the record\n    function deleteUint(bytes32 _key) onlyStoreInterface external {\n        delete uIntStorage[_key];\n    }\n\n    function deleteUint8(bytes32 _key) onlyStoreInterface external {\n        delete uIntStorage[_key];\n    }\n\n    function deleteUint16(bytes32 _key) onlyStoreInterface external {\n        delete uIntStorage[_key];\n    }\n\n    /// @param _key The key for the record\n    function deleteString(bytes32 _key) onlyStoreInterface external {\n        delete stringStorage[_key];\n    }\n\n    /// @param _key The key for the record\n    function deleteBytes(bytes32 _key) onlyStoreInterface external {\n        delete bytesStorage[_key];\n    }\n\n    /// @param _key The key for the record\n    function deleteBool(bytes32 _key) onlyStoreInterface external {\n        delete boolStorage[_key];\n    }\n\n    /// @param _key The key for the record\n    function deleteInt(bytes32 _key) onlyStoreInterface external {\n        delete intStorage[_key];\n    }\n\n}",
  "sourcePath": "/Users/davidvanisacker/Programming/Ethereum/Proofsuite/ProofCryptoFiat2/contracts/Store.sol",
  "compiler": {
    "name": "solc",
    "version": "0.4.18+commit.9cf6e910.Emscripten.clang"
  },
  "schemaVersion": "1.0.1",
  "updatedAt": "2018-01-30T04:50:37.935Z"
}