{
  "contractName": "Store",
  "abi": [
    {
      "constant": false,
      "inputs": [],
      "name": "lockOwnership",
      "outputs": [],
      "payable": false,
      "stateMutability": "nonpayable",
      "type": "function"
    },
    {
      "constant": false,
      "inputs": [
        {
          "name": "_key",
          "type": "bytes32"
        }
      ],
      "name": "deleteAddress",
      "outputs": [],
      "payable": false,
      "stateMutability": "nonpayable",
      "type": "function"
    },
    {
      "constant": true,
      "inputs": [
        {
          "name": "_key",
          "type": "bytes32"
        }
      ],
      "name": "getAddress",
      "outputs": [
        {
          "name": "",
          "type": "address"
        }
      ],
      "payable": false,
      "stateMutability": "view",
      "type": "function"
    },
    {
      "constant": false,
      "inputs": [
        {
          "name": "_key",
          "type": "bytes32"
        }
      ],
      "name": "deleteBool",
      "outputs": [],
      "payable": false,
      "stateMutability": "nonpayable",
      "type": "function"
    },
    {
      "constant": false,
      "inputs": [
        {
          "name": "_key",
          "type": "bytes32"
        },
        {
          "name": "_value",
          "type": "bytes"
        }
      ],
      "name": "setBytes",
      "outputs": [],
      "payable": false,
      "stateMutability": "nonpayable",
      "type": "function"
    },
    {
      "constant": false,
      "inputs": [
        {
          "name": "_key",
          "type": "bytes32"
        },
        {
          "name": "_value",
          "type": "int256"
        }
      ],
      "name": "setInt",
      "outputs": [],
      "payable": false,
      "stateMutability": "nonpayable",
      "type": "function"
    },
    {
      "constant": false,
      "inputs": [
        {
          "name": "_key",
          "type": "bytes32"
        }
      ],
      "name": "deleteBytes",
      "outputs": [],
      "payable": false,
      "stateMutability": "nonpayable",
      "type": "function"
    },
    {
      "constant": false,
      "inputs": [
        {
          "name": "_key",
          "type": "bytes32"
        },
        {
          "name": "_value",
          "type": "string"
        }
      ],
      "name": "setString",
      "outputs": [],
      "payable": false,
      "stateMutability": "nonpayable",
      "type": "function"
    },
    {
      "constant": true,
      "inputs": [
        {
          "name": "_key",
          "type": "bytes32"
        }
      ],
      "name": "getBool",
      "outputs": [
        {
          "name": "",
          "type": "bool"
        }
      ],
      "payable": false,
      "stateMutability": "view",
      "type": "function"
    },
    {
      "constant": false,
      "inputs": [
        {
          "name": "_key",
          "type": "bytes32"
        }
      ],
      "name": "deleteInt",
      "outputs": [],
      "payable": false,
      "stateMutability": "nonpayable",
      "type": "function"
    },
    {
      "constant": true,
      "inputs": [],
      "name": "owner",
      "outputs": [
        {
          "name": "",
          "type": "address"
        }
      ],
      "payable": false,
      "stateMutability": "view",
      "type": "function"
    },
    {
      "constant": true,
      "inputs": [
        {
          "name": "_key",
          "type": "bytes32"
        }
      ],
      "name": "getString",
      "outputs": [
        {
          "name": "",
          "type": "string"
        }
      ],
      "payable": false,
      "stateMutability": "view",
      "type": "function"
    },
    {
      "constant": false,
      "inputs": [
        {
          "name": "_key",
          "type": "bytes32"
        },
        {
          "name": "_value",
          "type": "bool"
        }
      ],
      "name": "setBool",
      "outputs": [],
      "payable": false,
      "stateMutability": "nonpayable",
      "type": "function"
    },
    {
      "constant": true,
      "inputs": [
        {
          "name": "_key",
          "type": "bytes32"
        }
      ],
      "name": "getUint",
      "outputs": [
        {
          "name": "",
          "type": "uint256"
        }
      ],
      "payable": false,
      "stateMutability": "view",
      "type": "function"
    },
    {
      "constant": true,
      "inputs": [
        {
          "name": "_key",
          "type": "bytes32"
        }
      ],
      "name": "getBytes",
      "outputs": [
        {
          "name": "",
          "type": "bytes"
        }
      ],
      "payable": false,
      "stateMutability": "view",
      "type": "function"
    },
    {
      "constant": false,
      "inputs": [
        {
          "name": "_key",
          "type": "bytes32"
        },
        {
          "name": "_value",
          "type": "address"
        }
      ],
      "name": "setAddress",
      "outputs": [],
      "payable": false,
      "stateMutability": "nonpayable",
      "type": "function"
    },
    {
      "constant": true,
      "inputs": [],
      "name": "locked",
      "outputs": [
        {
          "name": "",
          "type": "bool"
        }
      ],
      "payable": false,
      "stateMutability": "view",
      "type": "function"
    },
    {
      "constant": true,
      "inputs": [
        {
          "name": "_key",
          "type": "bytes32"
        }
      ],
      "name": "getInt",
      "outputs": [
        {
          "name": "",
          "type": "int256"
        }
      ],
      "payable": false,
      "stateMutability": "view",
      "type": "function"
    },
    {
      "constant": false,
      "inputs": [
        {
          "name": "_key",
          "type": "bytes32"
        },
        {
          "name": "_value",
          "type": "uint256"
        }
      ],
      "name": "setUint",
      "outputs": [],
      "payable": false,
      "stateMutability": "nonpayable",
      "type": "function"
    },
    {
      "constant": false,
      "inputs": [
        {
          "name": "_key",
          "type": "bytes32"
        }
      ],
      "name": "deleteUint",
      "outputs": [],
      "payable": false,
      "stateMutability": "nonpayable",
      "type": "function"
    },
    {
      "constant": false,
      "inputs": [
        {
          "name": "newOwner",
          "type": "address"
        }
      ],
      "name": "transferOwnership",
      "outputs": [],
      "payable": false,
      "stateMutability": "nonpayable",
      "type": "function"
    },
    {
      "constant": false,
      "inputs": [
        {
          "name": "_key",
          "type": "bytes32"
        }
      ],
      "name": "deleteString",
      "outputs": [],
      "payable": false,
      "stateMutability": "nonpayable",
      "type": "function"
    }
  ],
  "bytecode": "0x6060604052336000806101000a81548173ffffffffffffffffffffffffffffffffffffffff021916908373ffffffffffffffffffffffffffffffffffffffff160217905550610ec9806100536000396000f300606060405260043610610128576000357c0100000000000000000000000000000000000000000000000000000000900463ffffffff1680630577c02b1461012d5780630e14a3761461014257806321f8a721146101695780632c62ff2d146101d05780632e28d084146101f75780633e49bed014610232578063616b59f6146102625780636e899550146102895780637ae1cfca146102c45780638c160095146103035780638da5cb5b1461032a578063986e791a1461037f578063abfdcced1461041f578063bd02d0f514610451578063c031a1801461048c578063ca446dd91461052c578063cf30901214610572578063dc97d9621461059f578063e2a4853a146105da578063e2b202bf1461060a578063f2fde38b14610631578063f6bb3cc41461066a575b600080fd5b341561013857600080fd5b610140610691565b005b341561014d57600080fd5b610167600480803560001916906020019091905050610709565b005b341561017457600080fd5b61018e60048080356000191690602001909190505061074a565b604051808273ffffffffffffffffffffffffffffffffffffffff1673ffffffffffffffffffffffffffffffffffffffff16815260200191505060405180910390f35b34156101db57600080fd5b6101f560048080356000191690602001909190505061078f565b005b341561020257600080fd5b61023060048080356000191690602001909190803590602001908201803590602001919091929050506107bd565b005b341561023d57600080fd5b6102606004808035600019169060200190919080359060200190919050506107ed565b005b341561026d57600080fd5b610287600480803560001916906020019091905050610811565b005b341561029457600080fd5b6102c2600480803560001916906020019091908035906020019082018035906020019190919290505061083b565b005b34156102cf57600080fd5b6102e960048080356000191690602001909190505061086b565b604051808215151515815260200191505060405180910390f35b341561030e57600080fd5b61032860048080356000191690602001909190505061089d565b005b341561033557600080fd5b61033d6108bf565b604051808273ffffffffffffffffffffffffffffffffffffffff1673ffffffffffffffffffffffffffffffffffffffff16815260200191505060405180910390f35b341561038a57600080fd5b6103a46004808035600019169060200190919050506108e4565b6040518080602001828103825283818151815260200191508051906020019080838360005b838110156103e45780820151818401526020810190506103c9565b50505050905090810190601f1680156104115780820380516001836020036101000a031916815260200191505b509250505060405180910390f35b341561042a57600080fd5b61044f60048080356000191690602001909190803515159060200190919050506109a7565b005b341561045c57600080fd5b6104766004808035600019169060200190919050506109de565b6040518082815260200191505060405180910390f35b341561049757600080fd5b6104b1600480803560001916906020019091905050610a03565b6040518080602001828103825283818151815260200191508051906020019080838360005b838110156104f15780820151818401526020810190506104d6565b50505050905090810190601f16801561051e5780820380516001836020036101000a031916815260200191505b509250505060405180910390f35b341561053757600080fd5b61057060048080356000191690602001909190803573ffffffffffffffffffffffffffffffffffffffff16906020019091905050610ac6565b005b341561057d57600080fd5b610585610b24565b604051808215151515815260200191505060405180910390f35b34156105aa57600080fd5b6105c4600480803560001916906020019091905050610b37565b6040518082815260200191505060405180910390f35b34156105e557600080fd5b610608600480803560001916906020019091908035906020019091905050610b5c565b005b341561061557600080fd5b61062f600480803560001916906020019091905050610b80565b005b341561063c57600080fd5b610668600480803573ffffffffffffffffffffffffffffffffffffffff16906020019091905050610ba2565b005b341561067557600080fd5b61068f600480803560001916906020019091905050610c96565b005b6000809054906101000a900473ffffffffffffffffffffffffffffffffffffffff1673ffffffffffffffffffffffffffffffffffffffff163373ffffffffffffffffffffffffffffffffffffffff161415156106ec57600080fd5b6001600060146101000a81548160ff021916908315150217905550565b60036000826000191660001916815260200190815260200160002060006101000a81549073ffffffffffffffffffffffffffffffffffffffff021916905550565b600060036000836000191660001916815260200190815260200160002060009054906101000a900473ffffffffffffffffffffffffffffffffffffffff169050919050565b60056000826000191660001916815260200190815260200160002060006101000a81549060ff021916905550565b818160046000866000191660001916815260200190815260200160002091906107e7929190610cc0565b50505050565b80600660008460001916600019168152602001908152602001600020819055505050565b60046000826000191660001916815260200190815260200160002060006108389190610d40565b50565b81816002600086600019166000191681526020019081526020016000209190610865929190610d88565b50505050565b600060056000836000191660001916815260200190815260200160002060009054906101000a900460ff169050919050565b6006600082600019166000191681526020019081526020016000206000905550565b6000809054906101000a900473ffffffffffffffffffffffffffffffffffffffff1681565b6108ec610e08565b6002600083600019166000191681526020019081526020016000208054600181600116156101000203166002900480601f01602080910402602001604051908101604052809291908181526020018280546001816001161561010002031660029004801561099b5780601f106109705761010080835404028352916020019161099b565b820191906000526020600020905b81548152906001019060200180831161097e57829003601f168201915b50505050509050919050565b8060056000846000191660001916815260200190815260200160002060006101000a81548160ff0219169083151502179055505050565b6000600160008360001916600019168152602001908152602001600020549050919050565b610a0b610e1c565b6004600083600019166000191681526020019081526020016000208054600181600116156101000203166002900480601f016020809104026020016040519081016040528092919081815260200182805460018160011615610100020316600290048015610aba5780601f10610a8f57610100808354040283529160200191610aba565b820191906000526020600020905b815481529060010190602001808311610a9d57829003601f168201915b50505050509050919050565b8060036000846000191660001916815260200190815260200160002060006101000a81548173ffffffffffffffffffffffffffffffffffffffff021916908373ffffffffffffffffffffffffffffffffffffffff1602179055505050565b600060149054906101000a900460ff1681565b6000600660008360001916600019168152602001908152602001600020549050919050565b80600160008460001916600019168152602001908152602001600020819055505050565b6001600082600019166000191681526020019081526020016000206000905550565b6000809054906101000a900473ffffffffffffffffffffffffffffffffffffffff1673ffffffffffffffffffffffffffffffffffffffff163373ffffffffffffffffffffffffffffffffffffffff16141515610bfd57600080fd5b60001515600060149054906101000a900460ff161515141515610c1c57fe5b600073ffffffffffffffffffffffffffffffffffffffff168173ffffffffffffffffffffffffffffffffffffffff16141515610c9357806000806101000a81548173ffffffffffffffffffffffffffffffffffffffff021916908373ffffffffffffffffffffffffffffffffffffffff1602179055505b50565b6002600082600019166000191681526020019081526020016000206000610cbd9190610e30565b50565b828054600181600116156101000203166002900490600052602060002090601f016020900481019282601f10610d0157803560ff1916838001178555610d2f565b82800160010185558215610d2f579182015b82811115610d2e578235825591602001919060010190610d13565b5b509050610d3c9190610e78565b5090565b50805460018160011615610100020316600290046000825580601f10610d665750610d85565b601f016020900490600052602060002090810190610d849190610e78565b5b50565b828054600181600116156101000203166002900490600052602060002090601f016020900481019282601f10610dc957803560ff1916838001178555610df7565b82800160010185558215610df7579182015b82811115610df6578235825591602001919060010190610ddb565b5b509050610e049190610e78565b5090565b602060405190810160405280600081525090565b602060405190810160405280600081525090565b50805460018160011615610100020316600290046000825580601f10610e565750610e75565b601f016020900490600052602060002090810190610e749190610e78565b5b50565b610e9a91905b80821115610e96576000816000905550600101610e7e565b5090565b905600a165627a7a72305820c5da446cf8b8d8895c3f96c272109426c3ca887fed5865217b31c9660b672a4a0029",
  "source": "pragma solidity 0.4.18;\n\nimport \"./utils/Ownable.sol\";\n\n\ncontract Store is Ownable {\n\n    /**** Storage Types *******/\n    mapping(bytes32 => uint256)    private uintStorage;\n    mapping(bytes32 => string)     private stringStorage;\n    mapping(bytes32 => address)    private addressStorage;\n    mapping(bytes32 => bytes)      private bytesStorage;\n    mapping(bytes32 => bool)       private boolStorage;\n    mapping(bytes32 => int256)     private intStorage;\n\n\n    /*** Modifiers ************/\n\n    /**\n    * Only allow access to libraries in the store interface network *\n    * Currently the contracts in the store interface network are:\n    * - DividendsLib\n    */\n\n    modifier onlyStoreInterface() {\n        // require(msg.sender == owner);\n        _;\n    }\n\n    /**** Get Methods ***********/\n\n    /// @param _key The key for the record\n    function getAddress(bytes32 _key) external view returns (address) {\n        return addressStorage[_key];\n    }\n\n    /// @param _key The key for the record\n    function getUint(bytes32 _key) external view returns (uint) {\n        return uintStorage[_key];\n    }\n\n    /// @param _key The key for the record\n    function getString(bytes32 _key) external view returns (string) {\n        return stringStorage[_key];\n    }\n\n    /// @param _key The key for the record\n    function getBytes(bytes32 _key) external view returns (bytes) {\n        return bytesStorage[_key];\n    }\n\n    /// @param _key The key for the record\n    function getBool(bytes32 _key) external view returns (bool) {\n        return boolStorage[_key];\n    }\n\n    /// @param _key The key for the record\n    function getInt(bytes32 _key) external view returns (int) {\n        return intStorage[_key];\n    }\n\n\n    /**** Set Methods ***********/\n\n\n    /// @param _key The key for the record\n    function setAddress(bytes32 _key, address _value) onlyStoreInterface external {\n        addressStorage[_key] = _value;\n    }\n\n    /// @param _key The key for the record\n    function setUint(bytes32 _key, uint _value) onlyStoreInterface external {\n        uintStorage[_key] = _value;\n    }\n\n    /// @param _key The key for the record\n    function setString(bytes32 _key, string _value) onlyStoreInterface external {\n        stringStorage[_key] = _value;\n    }\n\n    /// @param _key The key for the record\n    function setBytes(bytes32 _key, bytes _value) onlyStoreInterface external {\n        bytesStorage[_key] = _value;\n    }\n\n    /// @param _key The key for the record\n    function setBool(bytes32 _key, bool _value) onlyStoreInterface external {\n        boolStorage[_key] = _value;\n    }\n\n    /// @param _key The key for the record\n    function setInt(bytes32 _key, int _value) external {\n        intStorage[_key] = _value;\n    }\n\n\n    /**** Delete Methods ***********/\n\n    /// @param _key The key for the record\n    function deleteAddress(bytes32 _key) onlyStoreInterface external {\n        delete addressStorage[_key];\n    }\n\n    /// @param _key The key for the record\n    function deleteUint(bytes32 _key) onlyStoreInterface external {\n        delete uintStorage[_key];\n    }\n\n    /// @param _key The key for the record\n    function deleteString(bytes32 _key) onlyStoreInterface external {\n        delete stringStorage[_key];\n    }\n\n    /// @param _key The key for the record\n    function deleteBytes(bytes32 _key) onlyStoreInterface external {\n        delete bytesStorage[_key];\n    }\n\n    /// @param _key The key for the record\n    function deleteBool(bytes32 _key) onlyStoreInterface external {\n        delete boolStorage[_key];\n    }\n\n    /// @param _key The key for the record\n    function deleteInt(bytes32 _key) onlyStoreInterface external {\n        delete intStorage[_key];\n    }\n\n}",
  "sourcePath": "/Users/davidvanisacker/Programming/Ethereum/Proofsuite/ProofCryptoFiat2/contracts/Store.sol",
  "compiler": {
    "name": "solc",
    "version": "0.4.18+commit.9cf6e910.Emscripten.clang"
  },
  "schemaVersion": "1.0.1",
  "updatedAt": "2018-02-06T13:14:06.244Z"
}